:100000000C9427010C9444010C9444010C94440179
:100010000C9444010C9444010C9444010C9444014C
:100020000C9444010C9444010C9444010C9412056A
:100030000C9444010C9444010C9444010C9444012C
:100040000C9444010C9444010C9444010C9444011C
:100050000C9444010C9444010C9444010C9444010C
:100060000C9444010C944401000000000000002F97
:1000700000000007000700147F147F14242A7F2A41
:100080001232340816263649552250000503000066
:10009000001C2241000041221C0014083E081408E4
:1000A000083E0808000050300010101010100060CA
:1000B00060000020100804023E5149453E00427F86
:1000C000400042615149462141454B311814127F8D
:1000D0001027454545393C4A494930017109050316
:1000E0003649494936064949291E0036360000007E
:1000F0005636000008142241001414141414004150
:100100002214080201510906324959513E7E11114B
:10011000117E7F494949363E414141227F4141227A
:100120001C7F494949417F090909013E4149497AF2
:100130007F0808087F00417F41002040413F017F48
:10014000081422417F404040407F020C027F7F0420
:1001500008107F3E4141413E7F090909063E415159
:10016000215E7F09192946464949493101017F012C
:10017000013F4040403F1F2040201F3F4038403F4C
:100180006314081463070870080761514945430068
:100190007F414100552A552A550041417F00040204
:1001A0000102044040404040000102040020545439
:1001B00054787F48444438384444442038444448C0
:1001C0007F3854545418087E0901020C5252523E92
:1001D0007F0804047800447D40002040443D007FB7
:1001E0001028440000417F40007C041804787C08FB
:1001F00004047838444444387C1414140808141453
:10020000187C7C080404084854545420043F44409B
:10021000203C4040207C1C2040201C3C4030403C86
:1002200044281028440C5050503C4464544C440022
:100230007F3E1C08081C3E7F00087C7E7C08103E28
:100240007E3E103E3E3E3E3E007F3E1C0800112496
:100250001FBECFEFD8E0DEBFCDBF16E0A0E0B1E01B
:10026000E4EAFBE202C005900D92AA38B107D9F783
:1002700026E0AAE8B6E001C01D92AC39B207E1F76A
:100280000E944C050C94D0150C940000EF92FF9244
:100290000F931F93CF93C82F7B018A010E94A5045F
:1002A00010929B0610929A06C7010E941B047801C7
:1002B0000AE510E010939B0600939A06F7018191DE
:1002C00091917F010E941B040C5A1F4F0E3FF1E0D9
:1002D0001F0781F7CF5F24E5C29FC00111249093CF
:1002E0009B0680939A0684E191E0CF911F910F9134
:1002F000FF90EF900C941B04AF92BF92DF92EF92AD
:10030000FF920F931F93CF93DF935C01042FF52E81
:10031000E62ED72E122F0E94A504CBE8D6E0188A2D
:100320001F86C5010E941B0488EA90E0988B8F8786
:10033000DF92EF92FF920F9386E191E09F938F936C
:10034000DF93CF930E947F0486E0189F90011124D1
:1003500024503F4F388B2F878DB79EB708960FB626
:10036000F8949EBF0FBE8DBF8DE191E0DF91CF91DC
:100370001F910F91FF90EF90DF90BF90AF900C9482
:100380001B04CF92DF92EF92FF920F931F93CF93B4
:100390008C016A017B0120E00E947C01C0E04C9B43
:1003A00078C019990BC0C43048F4CF5F199BFECFB9
:1003B0002C2FB701A601C8010E947C011A990BC01D
:1003C000CC2349F0C1501A9BFECF2C2FB701A601B8
:1003D000C8010E947C014A9928C0C13079F048F0D8
:1003E000C33089F0C430C9F42AE037ED43E25CE35E
:1003F0000EC020E030E040E251E409C020E030E0EF
:1004000040E85FE304C02DEC3CEC4CEC5DE3C7013D
:10041000B6010E94A6106B017C014A9BFECF2C2FD7
:10042000B701A601C8010E947C014B9928C0C130C8
:1004300079F048F0C33089F0C430C9F42AE037EDD0
:1004400043E25CE30EC020E030E040E251E409C04A
:1004500020E030E040E85FE304C02DEC3CEC4CECE5
:100460005DE3C701B6010E94A5106B017C014B9BA7
:10047000FECF2C2FB701A601C8010E947C012FE7F7
:100480008AE196E0215080409040E1F700C00000F2
:1004900086CF4C9BFECFC701B601CF911F910F9124
:1004A000FF90EF90DF90CF900895EF92FF920F931F
:1004B0001F93CF938C017B01AB01BC0180E00E94B4
:1004C0004601C0E04C9B22C04B990AC0C43040F4A6
:1004D000CF5F4B9BFECFA701B8018C2F0E94460136
:1004E0004A990AC0CC2341F0C1504A9BFECFA701D4
:1004F000B8018C2F0E9446012FE78AE196E0215037
:1005000080409040E1F700C00000DCCF4C9BFECF64
:100510008C2FCF911F910F91FF90EF90089582E45F
:1005200080937C0081EE94E00197F1F700C0000019
:1005300088E060E070E090917A00906490937A0097
:1005400090917A0096FDFCCF20917800309179004F
:10055000620F731F815079F780E090E00E94B8111C
:1005600020E030E040E85DE30E946F1220E030E0E0
:1005700040EA50E40E946F122DEC3CEC4CE454E451
:100580000E941711089580E480937C0081EE94E02E
:100590000197F1F700C0000088E060E070E0909102
:1005A0007A00906490937A0090917A0096FDFCCF47
:1005B0002091780030917900620F731F815079F794
:1005C00080E090E00E94B81120E030E040E85DE378
:1005D0000E946F1220E030E040EA50E40E946F1267
:1005E0002DEC3CEC4CE454E40E941711089581E496
:1005F00080937C0081EE94E00197F1F700C0000049
:1006000088E060E070E090917A00906490937A00C6
:1006100090917A0096FDFCCF20917800309179007E
:10062000620F731F815079F780E090E00E94B8114B
:1006300021E73DE342E450E40E946F1220E030E005
:1006400040EA50E40E946F1220E030E040E059E3BD
:100650000E946F1208950F931F93CF93DF93E09141
:100660009606F0919706929121E030E0A901009062
:100670008E0602C0440F551F0A94E2F7492B4083AF
:10068000E0919406F09195069291A90100908D0653
:1006900002C0440F551F0A94E2F7492B4083A091F2
:1006A0009006B09191064C91F90100908B0602C022
:1006B000EE0FFF1F0A94E2F79E2F909594239C93D0
:1006C00040918D06E0919406F091950690816130FD
:1006D000710539F401C0660F4A95EAF7692B60830A
:1006E00007C001C0220F4A95EAF7209529232083ED
:1006F00047E050E0C82FD0E061E070E020918E0626
:10070000E0919606F0919706CE01042E02C09595D1
:1007100087950A94E2F780FF08C03081CB0101C0C1
:10072000880F2A95EAF7832B0AC09081DB0102C06B
:10073000AA0FBB1F2A95E2F78A2F80958923808311
:10074000A0919806B09199068C9121E030E0FB01D0
:1007500000908F0602C0EE0FFF1F0A94E2F7E82B0D
:10076000EC930091980610919906D801EC91DB0169
:1007700000908F0602C0AA0FBB1F0A94E2F79A2FBF
:1007800090959E23F80190834150510908F0B6CF0F
:10079000E0919006F09191064081C90100908B068E
:1007A00002C0880F991F0A94E2F7842B8083E0919E
:1007B0009606F09197069291A90100908E0602C0CC
:1007C000440F551F0A94E2F7842F80958923808374
:1007D000E0919406F09195069291A90100908D0602
:1007E00002C0440F551F0A94E2F7842F8095892395
:1007F0008083E0919606F09197064081C9010090B0
:100800008E0602C0880F991F0A94E2F7842B80831A
:10081000E0919406F0919506808100908D0602C0CB
:10082000220F331F0A94E2F7282B2083DF91CF9108
:100830001F910F910895CF92DF92EF92FF920F9345
:100840001F93CF93DF937C0184E5C82ED12CF70151
:10085000C1917F01CC2309F449C080919A069091FF
:100860009B06CA3069F49C012C5A3F4FB6010E9486
:100870006F10281B390B30939B0620939A06E7CF05
:10088000B6010E945B10D62F60E070E080680E9485
:100890002B0360E070E08D2F80640E942B03F5E055
:1008A000CF02E001112400E010E0C05AD109FE019E
:1008B000E00FF11FE859FF4F849161E070E0880F6D
:1008C0000E942B030F5F1F4F0530110581F761E078
:1008D00070E080E00E942B0380919A0690919B0625
:1008E000069690939B0680939A06B1CFDF91CF91A5
:1008F0001F910F91FF90EF90DF90CF900895CF93CD
:10090000DF93CDB7DEB7C056D1090FB6F894DEBF7E
:100910000FBECDBF9E0127593F4FA9964EAD5FAD8B
:10092000A9976FE570E0CE0101960E94DC12CE011E
:1009300001960E941B04C05ADF4F0FB6F894DEBF29
:100940000FBECDBFDF91CF910895CF93DF9310926B
:100950009B0610929A0660E070E080E80E942B03EC
:1009600060E070E080E40E942B03C8EFD1E061E01A
:1009700070E080E00E942B032197C9F7DF91CF91AF
:100980000895FC014191CF01442329F14498FAE6EE
:10099000FA95F1F700C020E030E0042E000C550B72
:1009A000BA01022E02C0759567950A94E2F760FFBE
:1009B00002C0449A01C044986AE66A95F1F700C003
:1009C0002F5F3F4F2830310559F7449AEAE6EA9500
:1009D000F1F700C0D6CF0895CF93DF93CDB7DEB740
:1009E000C054D1090FB6F894DEBF0FBECDBF9E0133
:1009F0002B5B3F4FF901419151919F016FE370E0F3
:100A0000CE0101960E94DC12CE0101960E94C10423
:100A1000C05CDF4F0FB6F894DEBF0FBECDBFDF91D5
:100A2000CF9108951F920F920FB60F9211248F93BA
:100A300081E080938A068F910F900FBE0F901F90D8
:100A4000189583E480937C0081EE94E00197F1F7A0
:100A500000C0000088E060E070E090917A0090644F
:100A600090937A0090917A0096FDFCCF20917800C7
:100A700030917900620F731F815079F780E090E028
:100A80000E94B8112EE632E143E851E40E941711AA
:100A90000E948911CB010895CF93DF93CDB7DEB7C4
:100AA000A2970FB6F894DEBF0FBECDBF4BE250E069
:100AB0008BB18C618BB985E290E025B1266025B9B8
:100AC000579A209A2AB120662AB927B1206327B9FC
:100AD000449A10928500109284002BE43CE43093F9
:100AE00089002093880020916F00226020936F007E
:100AF000789420917A00206820937A0020917A00DF
:100B0000276020937A0050939106409390061092AC
:100B10008B06509393064093920621E020938C0617
:100B2000909395068093940623E020938D069093EE
:100B300097068093960624E020938E06909399065C
:100B40008093980685E080938F06599A81E090E023
:100B5000519A4AB19C0100908B0602C0220F331FAC
:100B60000A94E2F7242B2AB9239A249A259AEFE5CE
:100B7000FAEE3197F1F700C00000E0919206F09193
:100B800093063081AC0100908C0602C0440F551FC3
:100B90000A94E2F7242F209523232083FFEF2FE1EF
:100BA00033E0F15020403040E1F700C00000E09118
:100BB0009206F091930640819C0100908C0602C041
:100BC000220F331F0A94E2F7242B2083E091900632
:100BD000F0919106208100908B0602C0880F991F2A
:100BE0000A94E2F780958223808360E070E081E2DE
:100BF0000E942B0360E070E088EC0E942B0360E011
:100C000070E086E00E942B0360E070E083E10E94C8
:100C10002B0360E070E080E20E942B0360E070E054
:100C20008CE00E942B030E94A50460E070E081E24A
:100C30000E942B0360E070E080EC0E942B0360E0D8
:100C400070E080E20E942B0310929B0610929A069D
:100C50008FE191E09F938F938BE896E09F938F9322
:100C60000E947F04FFEF2AE137EBF1502040304033
:100C7000E1F700C000000F900F900F900F900E94BE
:100C8000A5046AE071E08FE591E00E945502823090
:100C900009F4BAC208F05AC0882309F468C0813048
:100CA00071F740E050E060E87FE386E694E00E9460
:100CB000C1011B01082F9D8B40E050E060E87FE3FD
:100CC0008EE794E00E94C1016C837D838E839F83B5
:100CD0000E94A50410929B0610929A069F819F93F2
:100CE000EE81EF93FD81FF932C812F933D893F93FC
:100CF0000F933F922F9282E994E09F938F938BE81A
:100D000096E09F938F930E947F048DED94E00E9464
:100D1000C104FD89FF930F933F922F922F812F9350
:100D20003E813F934D814F938C818F9381EF94E06F
:100D30009F938F930E94EC048FE095E00E94C10482
:100D40000FB6F894DEBF0FBECDBF1EC2833009F4CC
:100D500049C3843009F093CF98E088E10FB6F89446
:100D6000A895809360000FBE909360004AC360E036
:100D700071E08DE691E00E945502813009F4CFC008
:100D800088F0823009F48AC1833009F078CF40E0DE
:100D900050E060E87FE383E594E00E94C1012B010D
:100DA0003C01BCC140E050E060E87FE38BE791E0AC
:100DB0000E94C1016D8B172F082F392E46E656E68B
:100DC00066E870E484E991E00E94C101262E7B83ED
:100DD0008C839D830E94A50410929B0610929A0614
:100DE0004D814F938C818F939B819F932F923F9244
:100DF0000F931F93ED89EF938CEA91E09F938F936C
:100E00002BE836E03F932F930E947F0487EF91E019
:100E10000E94C1043F920F931F938D898F939D81F0
:100E20009F93EC81EF93FB81FF932F928EE092E0F2
:100E30009F938F930E94EC048CE292E00E94C10485
:100E40000FB6F894DEBF0FBECDBF4C99FECF4C9BC2
:100E5000FECF0E94A50420E030E0A901BD896B2FE0
:100E6000712F802F932D0E941211882319F031E0E9
:100E70003B8706C01B861D8A10E000E480E4382E04
:100E800083E284BD85B5816085BD8DE0809381005E
:100E90001E8219821A821A86812C912C5401C12C2F
:100EA000D12C76018B858823E1F00E94C3022B01AF
:100EB0003C0123E333E343E75FE3BD896B2F712FED
:100EC000802F932D0E946F129B01AC01C301B201D0
:100ED0000E94121187FF96C288B58F3F09F001C6A4
:100EE00091C20E94F7022B013C012DEC3CEC4CE43A
:100EF0005DE3AB81FC81ED81622D7A2F8F2F9E2FD8
:100F00000E94A5109B01AC01C301B2010E94121105
:100F100087FFEAC588B58F3F09F0E3C5E5C540E026
:100F200050E060E87FE38FE791E00E94C1016C83AD
:100F30007D838E839F8340E050E060E87FE389E516
:100F400093E00E94C1016B017C0140E050E060EE43
:100F500070E484E693E00E94C1010E94891168A3B5
:100F6000C701B6010E94891170E080E090E00E9404
:100F7000BA11688F798F8A8F9B8F2AE037ED43EE05
:100F80005FE30E946F126C877D878E879F876C8FCF
:100F90007D8F8E8F9F8F0E94A50410929B061092CA
:100FA0009A069F859F93EE85EF93FD85FF932C8591
:100FB0002F933F813F934E814F938D818F939C81DF
:100FC0009F938CEA91E09F938F93EBE8F6E0FF9379
:100FD000EF930E947F0487EF91E00E94C1043F815C
:100FE0003F934E814F938D818F939C819F93EF858B
:100FF000EF93FE85FF932D852F933C853F938EE0E5
:1010000092E09F938F930E94EC048CE292E00E9406
:10101000C1040FB6F894DEBF0FBECDBF4C99FECF12
:101020004C9BFECF0E94A5040E94F702698B7A8B2D
:10103000888B9B8B83E284BD85B5816085BD8DE007
:101040008093810000E018861AA210E01B82812C98
:10105000912C5401C12CD12C76010E94C3022B018A
:101060003C0123E333E343E75FE3BC81AD81FE81D1
:10107000EF816B2F7A2F8F2F9E2F0E946F129B0173
:10108000AC01C301B2010E94121187FF98C388B559
:101090008F3F09F494C388B58F5F88C540E050E066
:1010A00060EA70E481E194E00E94C1012B013C01FF
:1010B0004C9BFECF83E284BD85B5816085BD4C9B92
:1010C00025C020E031E0398F288F0E94F702162FCB
:1010D000072FF82EE92E2DEC3CEC4CE45DE3C30128
:1010E000B2010E94A5109B01AC01D801F7016B2F42
:1010F0007A2F8F2F9E2F0E94121187FF59C588B516
:101100008F3F09F455C588B58F5FB0C585B585BDDE
:1011100014BC109281004C9BFECFB1CD4C9BFECFF6
:1011200083E284BD85B5816085BD4C9B25C080E090
:1011300091E0998F888F0E94C302162F072FF82EF7
:10114000E92E2DEC3CEC4CE45DE3C301B2010E94BE
:10115000A5109B01AC01D801F7016B2F7A2F8F2FBF
:101160009E2F0E94121187FF83C588B58F3F09F417
:101170007FC588B58F5FD7C585B585BD14BC109276
:1011800081004C9BFECF7BCD4C99FECF4C9BFECF7C
:101190000E94F7026E877F87898B9A8B762F6F85E7
:1011A000982F8A89272F362F492F582FED89622DA6
:1011B000732D802F9E2F0E946F1220E030E040E0C0
:1011C00050E40E946A1218160CF4459A83E884BD14
:1011D00085B5816085BDFFEFF9830E948F026B01A9
:1011E0007C019B01AC01ED89622D732D802F9E2F18
:1011F0000E946A1218160CF098C587B58F3F09F443
:1012000094C587B58F5FE6C540E050E060EA70E4C2
:1012100081E194E00E94C1014B015C0140E050E09B
:1012200060E87FE380E096E00E94C1016B017C01F1
:101230004C9BFECF83E284BD85B5816085BD31E0E6
:101240003C834C9BC7C000E011E00E94C302762E95
:10125000672E89839D830E94F7021B012C01762F44
:10126000272F332D442D552DC501B4010E946A123C
:10127000B3019981181654F18D81272F362F492FEC
:10128000582FC701B6010E94121187FD2AC04C8158
:10129000442339F12DEC3CEC4CE45DE3C501B40191
:1012A0000E94A5109B01AC01622D732D842D952DFC
:1012B0000E94121187FFDDC688B58F3F09F4D9C699
:1012C00088B58F5F88BD41E04C833FC08D81272F5B
:1012D000362F492F582FC701B6010E94121187FFE0
:1012E000D9CF2DEC3CEC4CE45DE3C701B6010E9484
:1012F000A5109B01AC01D301F981ED816B2F762DF7
:101300008F2F9E2F0E94121187FF06C088B58F3F36
:1013100019F088B58F5FCDC62DEC3CEC4CE45DE355
:10132000C701B6010E94A6109B01AC01D301F9814F
:10133000ED816B2F762D8F2F9E2F0E946A1218162B
:101340001CF488B58111B3C61C820150110909F043
:101350007CCF0E94A50410929B0610929A0688B535
:101360001F928F93122D032D4A825B82222D332DE3
:10137000A201230139802D80652D762D832D922D9C
:101380000E946F129F938F937F936F932F923F9240
:101390006F925F929B819F93EA81EF930F931F93CC
:1013A00022E136E03F932F938BE896E09F938F9353
:1013B0000E947F040FB6F894DEBF0FBECDBF3C8104
:1013C000332319F080EC92E002C088EB92E00E9497
:1013D0001B0437CF85B585BD14BC109281004C9B92
:1013E000FECF4DCC0E94A50410929B0610929A0647
:1013F0008FE191E00E941B044C99FECF4C9BFECFE5
:101400003ECCFFCF26E636E646E85FE3BD896B2F8C
:10141000712F802F932D0E946F129B01AC01C3018D
:10142000B2010E946A1218161CF488B581116AC3B1
:1014300080918A06882309F435CD10928A0685B1F9
:1014400091E0892785B9E981EF5FE983EC3320F0EA
:10145000FA81FF5FFA8319822A812C3320F03A85C2
:101460003F5F3A871A820E94F7026C877D878E87DA
:101470009F870E94C3026F83788789879C8B0E9415
:101480002105BC0180E090E00E94B811698B7A8B45
:10149000888B9B8BC701B6010E94B8116B017C0140
:1014A00020E030E04AE754E4BF81A885F985EC8963
:1014B0006B2F7A2F8F2F9E2F0E946F129B01AC01F2
:1014C000C701B6010E94A6100E9489116B017C0120
:1014D0007F81688599858C89272F362F492F582F32
:1014E000BC85AD85FE85EF856B2F7A2F8F2F9E2FC4
:1014F0000E946F1220E030E04AE754E40E946F122D
:101500002B013C01C501B4010E94B8119B01AC0143
:10151000C301B2010E94A6100E9489114B015C0117
:101520000E94A50410929B0610929A064B894F9335
:1015300088898F939A899F93E989EF931F92F98104
:10154000FF931F922A812F931F923A853F93C701E1
:10155000B60120E13EE040E050E00E9483103F935E
:101560002F934D814F938C818F939B819F932F92CB
:10157000EF85EF93FE85FF932D852F933C853F9359
:101580003F920F931F934D894F938C898F93998529
:101590009F93E885EF93FF81FF9329E432E03F9327
:1015A0002F938BE896E09F938F930E947F0488B5DA
:1015B0000FB6F894DEBF0FBECDBF3B893F9348897D
:1015C0004F939A899F93E989EF931F928F931F926C
:1015D000F981FF931F922A812F931F923A853F939F
:1015E0004C894F9389858F9398859F93EF81EF93D3
:1015F000FF85FF932E852F933D853F934C854F9319
:1016000082E992E09F938F930E94EC040FB6F894C6
:10161000DEBF0FBECDBF3B853323F1F088EB92E0F8
:101620000E941B047C856D859E858F85272F362F14
:10163000492F582FAB81FC81ED81622D7A2F8F2F9E
:101640009E2F0E941211881F8827881F41E048277B
:101650004B8781E08F8336C080EC92E00E941B04B0
:101660002DEC3CEC4CEC5DE3BD896B2F712F802F92
:10167000932D0E946F129B01AC01BF81A885F98553
:10168000EC896B2F7A2F8F2F9E2F0E94121187FDCE
:1016900016C07F81688599858C89272F362F492F21
:1016A000582FBD896B2F712F802F932D0E941211FF
:1016B000881F8827881F8B8791E09F8303C0E1E004
:1016C000EE831F824C9903C0F3E0FE831F8220E06B
:1016D00030E044E352E4B989AA89F889EB896B2F99
:1016E0007A2F8F2F9E2F0E946A12181624F04F8196
:1016F000442319F0D7CB22E02E8385B585BD14BCD9
:101700001092810028985F9A0E94A50410929B066F
:1017100010929A061F9239813F931F924A814F93EC
:101720001F928A858F93C501B40120E13EE040E01D
:1017300050E00E9483103F932F93C701B60120E130
:101740003EE040E050E00E9483103F932F9388ECEE
:1017500092E09F938F93EBE8F6E0FF93EF930E9464
:101760007F040FB6F894DEBF0FBECDBF9E819230CE
:1017700039F0933041F0913051F485E093E005C0A9
:1017800082E193E002C081E293E00E941B044C9B43
:10179000FECF4C99FECF5F988DE293E00E94C1048A
:1017A0003F920F931F93ED89EF93FD81FF932C815F
:1017B0002F933B813F932F928BE393E088C126E6E2
:1017C00036E646E85FE3BC81AD81FE81EF816B2F99
:1017D0007A2F8F2F9E2F0E946F129B01AC01C301A5
:1017E000B2010E946A1218161CF488B58111DCC17E
:1017F00080918A06882309F430CC10928A06E88505
:10180000EF5FE88785B1F1E08F2785B92AA12F5FC7
:101810002AA32C3310F01F5F1AA21C3320F03B8147
:101820003F5F3B8310E00E94F702262E79838A8374
:10183000392E0E94C302562E672E782E492E0E9402
:101840002105BC0180E090E00E94B8116C8B7D8B7B
:101850008E8B9F8BC701B6010E94B8116B017C0172
:1018600020E030E04AE754E4598669A27A864B8644
:10187000652D762D872D942D0E946F129B01AC0152
:10188000C701B6010E94A6100E9489116B017C015C
:10189000252D362D472D542DA981FA81622D7A2FC1
:1018A0008F2F932D0E946F1220E030E04AE754E41E
:1018B0000E946F122B013C01C501B4010E94B811B6
:1018C0009B01AC01C301B2010E94A6100E948911C4
:1018D0004B015C0110929B0610929A064F894F9320
:1018E0008E898F939D899F93EC89EF931F92FAA124
:1018F000FF931F921F931F922B812F933F8D3F9336
:101900004E8D4F938D8D8F939C8D9F933F92EA8147
:10191000EF93F981FF932F922F812F933E813F9375
:101920004D814F938C818F939B859F93EA85EF9395
:10193000F9A1FF9329852F9388E793E09F938F93D5
:101940002BE836E03F932F930E947F0488B59F8950
:101950009F93EE89EF93FD89FF932C892F931F921C
:101960008F931F923AA13F931F921F931F924B8117
:101970004F938B858F939A859F93E9A1EF93F98578
:10198000FF933F922A812F9339813F932F9282E9CF
:1019900092E09F938F930E94EC040FB6F894DEBF01
:1019A0000FBECDBF69819A81222D362F492F532D2D
:1019B000BC8DAD8DFE8DEF8D6B2F7A2F8F2F9E2FCF
:1019C0000E94121187FFA2C001E019864C9902C043
:1019D00003E0198648854C3308F09BC028A13B8161
:1019E000321710F005E0198620E030E044E352E4BD
:1019F000BC89AD89FE89EF896B2F7A2F8F2F9E2F9F
:101A00000E946A1218160CF4B9C09985911125CB61
:101A100085B585BD14BC1092810028985F9A0E94FC
:101A2000A50410929B0610929A061F924AA14F930A
:101A30001F921F931F928B818F93C501B40120E1E8
:101A40003EE040E050E00E9483103F932F93C70197
:101A5000B60120E13EE040E050E00E9483103F9359
:101A60002F9389EB93E09F938F93EBE8F6E0FF933E
:101A7000EF930E947F040FB6F894DEBF0FBECDBF78
:101A8000033009F48BC008F081C0013009F078C040
:101A900083EF93E00E941B044C99FECF4C9BFECF3A
:101AA0005F988DE293E00E94C1049F819F93EE8135
:101AB000EF93FD81FF932C812F933F853F934E85BC
:101AC0004F938D858F939C859F938EE092E09F939B
:101AD0008F930E94EC040FB6F894DEBF0FBECDBF0B
:101AE000CEC888B58F5F10C0A3019201AB81FC8185
:101AF000ED81622D7A2F8F2F9E2F0E94121187FD6C
:101B000094CC96CC88B5815088BD92CC31E0398791
:101B10005DCF69819A81222D362F492F532DB989A6
:101B2000AA89F889EB896B2F7A2F8F2F9E2F0E941D
:101B3000A5102B013C012DEC3CEC4CE45EE3688DE0
:101B4000798D8A8D9B8D0E946F129B01AC01C30120
:101B5000B2010E946A12298A18164CF489818A8B74
:101B60009A81988B3B8A04E01886198637CFE981E1
:101B7000EA8BFA81F88B3B8A188630CF02E048CF97
:101B8000023009F089CF82E193E084CF043049F03C
:101B9000053009F081CF88E094E07CCF81E293E0CA
:101BA00079CF8FEF93E076CF88B5815088BD20CE76
:101BB0002DEC3CEC4CE45DE3C301B2010E94A610A5
:101BC0009B01AC01D801F7016B2F702F8F2F9E2D39
:101BD0000E946A1218161CF488B5811145C0888DC0
:101BE000998D0197998F888F892B09F06ECA0E9471
:101BF000C3026B018A8399830E94A50410929B06FD
:101C000010929A0688B51F928F93BC2CAD2C9A80A7
:101C100089802C2D3D2D492D582D19830A8367016C
:101C2000612F702F8D2D9E2D0E946F129F938F9389
:101C30007F936F938F929F92AF92BF92EF92DF92BA
:101C40009A819F93E981EF9324E234E03F932F93AD
:101C50008BE896E09F938F930E947F040FB6F894D1
:101C6000DEBF0FBECDBF2BCA88B5815088BDB7CFB0
:101C70002DEC3CEC4CE45DE3C301B2010E94A610E4
:101C80009B01AC01D801F7016B2F702F8F2F9E2D78
:101C90000E946A1218161CF488B5811142C0E88DA2
:101CA000F98D3197F98FE88FEF2B09F044CA0E9424
:101CB000F7024B015C010E94A50410929B06109252
:101CC0009A0688B51F928F9389829A82DA2CCB2C40
:101CD00094014A2D5B2D580147016B2D702F892DE2
:101CE0009E2D0E946F129F938F937F936F93EF921D
:101CF0009F920F93BF92CF92DF92FA81FF93298137
:101D00002F9384E294E09F938F932BE836E03F93E8
:101D10002F930E947F040FB6F894DEBF0FBECDBF95
:101D200004CA88B5815088BDBACFA7019601ED8954
:101D3000622D732D802F9E2F0E94121187FF03C0EA
:101D400087B5811145C0298121502983211145CAB8
:101D50008DE0809381001A8219821B82C12CD12CC4
:101D60007601812C912C540180918A068823E1F31D
:101D700010928A0685B131E0832785B94A814F5F89
:101D80004A834C3320F089818F5F89831A8299813D
:101D90009C3320F0EB81EF5FEB8319820E948F026E
:101DA000462E7C87782E192F762F6C85272F362F7D
:101DB000472D512FED89622D732D802F9E2F0E946C
:101DC0006A1218164CF487B58F3F09F04BC104C056
:101DD00087B5815087BDB7CF6C85242D362F472D11
:101DE000512FED89622D732D802F9E2F0E9412118D
:101DF00087FF03C087B5811138C10E94F702562EB4
:101E0000672E888B9B8BC501B4010E94B8114B01D2
:101E10005C0120E030E04AE754E44886FC85F9871D
:101E20007A861B87642D7F2F872D912F0E946F123A
:101E30009B01AC01C501B4010E94A6100E9489114A
:101E40004B015C01152D6C8628892C8B3B893D87C5
:101E5000252D362D4C895D85A985EB85642D7A2F3E
:101E6000872D9E2F0E946F1220E030E04AE754E455
:101E70000E946F122B013C01C701B6010E94B811EC
:101E80009B01AC01C301B2010E94A6100E948911FE
:101E90006B017C0110929B0610929A0647B5488B05
:101EA00020E13EE040E050E00E948310622E532E7D
:101EB000C501B40120E13EE040E050E00E94831003
:101EC000422E732E1F9288898F931F929A819F931F
:101ED0001F92E981EF931F92FB81FF935F926F92B4
:101EE0003F932F932D892F930F933F922F923B85F2
:101EF0003F934A854F9389858F9398859F93EF8170
:101F0000EF93FE81FF932D812F933C813F934D856D
:101F10004F938C898F939C859F931F93EFE2F5E0FD
:101F2000FF93EF938BE896E09F938F930E947F043B
:101F300087B50FB6F894DEBF0FBECDBF1F928F934B
:101F40001F923A813F931F9249814F931F928B8139
:101F50008F935F926F927F924F929B859F93EA85BA
:101F6000EF93F985FF9328852F933D853F934C8907
:101F70004F938C858F931F93E4E8F5E0FF93EF93E5
:101F80000E94EC040FB6F894DEBF0FBECDBF6C8587
:101F90009C898D85212F362F492F582FBC81AD81EB
:101FA000FE81EF816B2F7A2F8F2F9E2F0E946A1256
:101FB000181614F04C99D8CE1092810085B585BDC5
:101FC00014BC459828985F9A0E94A50410929B061D
:101FD00010929A061F929A819F931F92E981EF9324
:101FE0001F92FB81FF93C701B60120E13EE040E074
:101FF00050E00E9483103F932F93C501B40120E16C
:102000003EE040E050E00E9483103F932F932D89E3
:102010002F930F933F922F923F813F934E814F9387
:102020008D818F939C819F93EA89EF93F989FF9328
:102030002F852F933E853F938DEA95E09F938F9355
:102040008BE896E09F938F930E947F040FB6F894DD
:10205000DEBF0FBECDBF4C9BFECF4C99FECF5F982D
:102060000C943F0687B58F5F02C087B5815087BD4E
:10207000C4CE2DEC3CEC4CE45DE3C501B4010E9400
:10208000A6109B01AC01622D732D842D952D0E940D
:102090006A1218161CF488B5811103C081E08C8384
:1020A00054C988B5815088BD91E09C834EC988B5DC
:1020B000815088BD49C9AA1BBB1B51E107C0AA1F9B
:1020C000BB1FA617B70710F0A61BB70B881F991FD9
:1020D0005A95A9F780959095BC01CD01089597FB7D
:1020E000072E16F4009407D077FD09D00E945B10EC
:1020F00007FC05D03EF4909581959F4F089570950B
:1021000061957F4F0895A1E21A2EAA1BBB1BFD010A
:102110000DC0AA1FBB1FEE1FFF1FA217B307E407C6
:10212000F50720F0A21BB30BE40BF50B661F771F1E
:10213000881F991F1A9469F76095709580959095FE
:102140009B01AC01BD01CF0108955058BB27AA27C0
:102150000E94BD100C9430120E94221238F00E948E
:10216000291220F039F49F3F19F426F40C941F1221
:102170000EF4E095E7FB0C941912E92F0E9441122E
:1021800058F3BA17620773078407950720F079F4AC
:10219000A6F50C9463120EF4E0950B2EBA2FA02D29
:1021A0000B01B90190010C01CA01A0011124FF2704
:1021B000591B99F0593F50F4503E68F11A16F040FF
:1021C000A22F232F342F4427585FF3CF46953795FE
:1021D0002795A795F0405395C9F77EF41F16BA0BC3
:1021E000620B730B840BBAF09150A1F0FF0FBB1F71
:1021F000661F771F881FC2F70EC0BA0F621F731FBA
:10220000841F48F4879577956795B795F7959E3F16
:1022100008F0B0CF9395880F08F09927EE0F9795A7
:10222000879508950E94F51108F481E008950E94B1
:102230002B110C9430120E94291258F00E94221285
:1022400040F029F45F3F29F00C94191251110C94BD
:1022500064120C941F120E94411268F39923B1F387
:10226000552391F3951B550BBB27AA2762177307BC
:10227000840738F09F5F5F4F220F331F441FAA1F50
:10228000A9F335D00E2E3AF0E0E832D0915050400C
:10229000E695001CCAF72BD0FE2F29D0660F771FBA
:1022A000881FBB1F261737074807AB07B0E809F0A0
:1022B000BB0B802DBF01FF2793585F4F3AF09E3F25
:1022C000510578F00C9419120C9464125F3FE4F3FA
:1022D000983ED4F3869577956795B795F7959F5F68
:1022E000C9F7880F911D9695879597F90895E1E0B4
:1022F000660F771F881FBB1F621773078407BA0713
:1023000020F0621B730B840BBA0BEE1F88F7E0956D
:1023100008950E94491288F09F5798F0B92F992785
:10232000B751B0F0E1F0660F771F881F991F1AF0C0
:10233000BA95C9F714C0B13091F00E946312B1E0B0
:1023400008950C946312672F782F8827B85F39F0AF
:10235000B93FCCF3869577956795B395D9F73EF459
:1023600090958095709561957F4F8F4F9F4F089501
:10237000E89409C097FB3EF490958095709561951F
:102380007F4F8F4F9F4F9923A9F0F92F96E9BB27D5
:102390009395F695879577956795B795F111F8CF51
:1023A000FAF4BB0F11F460FF1BC06F5F7F4F8F4FBC
:1023B0009F4F16C0882311F096E911C0772321F0B2
:1023C0009EE8872F762F05C0662371F096E8862F4A
:1023D00070E060E02AF09A95660F771F881FDAF7A1
:1023E000880F9695879597F90895990F0008550FCE
:1023F000AA0BE0E8FEEF16161706E807F907C0F08B
:1024000012161306E407F50798F0621B730B840B92
:10241000950B39F40A2661F0232B242B252B21F46C
:1024200008950A2609F4A140A6958FEF811D811D0C
:10243000089597F99F6780E870E060E008959FEF46
:1024400080EC089500240A9416161706180609064B
:10245000089500240A94121613061406050608951A
:10246000092E0394000C11F4882352F0BB0F40F4A2
:10247000BF2B11F460FF04C06F5F7F4F8F4F9F4FE2
:10248000089557FD9058440F551F59F05F3F71F064
:102490004795880F97FB991F61F09F3F79F08795CB
:1024A0000895121613061406551FF2CF4695F1DF54
:1024B00008C0161617061806991FF1CF86957105E4
:1024C000610508940895E894BB2766277727CB0118
:1024D00097F908950E94F51108F48FEF08950E946E
:1024E00082120C9430120E94221238F00E9429129B
:1024F00020F0952311F00C9419120C941F12112442
:102500000C9464120E94411270F3959FC1F3950FD1
:1025100050E0551F629FF001729FBB27F00DB11D67
:10252000639FAA27F00DB11DAA1F649F6627B00DF7
:10253000A11D661F829F2227B00DA11D621F739FE0
:10254000B00DA11D621F839FA00D611D221F749FEE
:102550003327A00D611D231F849F600D211D822F35
:10256000762F6A2F11249F5750409AF0F1F088235C
:102570004AF0EE0FFF1FBB1F661F771F881F915089
:102580005040A9F79E3F510580F00C9419120C940D
:1025900064125F3FE4F3983ED4F386957795679590
:1025A000B795F795E7959F5FC1F7FE2B880F911DB3
:1025B0009695879597F90895AEE0B0E0E2EEF2E1E6
:1025C0000C94A7158C01FA0186E08C831A83098389
:1025D00077FF02C060E070E8CB0101979E838D8396
:1025E000A901BF01CE0101960E9408134D815E81B1
:1025F00057FD0AC02F813885421753070CF49A0102
:10260000F801E20FF31F10822E96E4E00C94C3153C
:10261000ABE0B0E0EEE0F3E10C9499156C017B01C6
:102620008A01FC0117821682838181FFCCC1CE0111
:1026300001963C01F6019381F70193FD859193FF8B
:1026400081917F01882309F4BAC1853239F493FD61
:10265000859193FF81917F01853229F4B60190E045
:102660000E94FF14E7CF912C212C312CFFE1F315B0
:10267000D8F08B3279F038F4803279F08332A1F4DB
:10268000232D20611DC08D3261F0803369F4232D2C
:10269000216016C0832D8260382EE32DE4603E2E2B
:1026A0002AC0F32DF8601DC037FC2DC020ED280F87
:1026B0002A3040F08E32B9F436FC81C1232D2064DB
:1026C000322E19C036FE06C08AE0989E200D1124D5
:1026D000922E11C0EAE02E9E200D1124222EF32D01
:1026E000F0623F2E08C08C3621F4832D8068382E8E
:1026F00002C0883641F4F70193FD859193FF8191E3
:102700007F018111B3CF982F9F7D9554933028F48A
:102710000C5F1F4F9FE399830DC0833631F08337E1
:1027200071F0833509F059C021C0F8018081898397
:102730000E5F1F4F88248394912C530113C02801EE
:10274000F2E04F0E511CF801A080B18036FE03C0AC
:10275000692D70E002C06FEF7FEFC5010E94F41495
:102760004C018201F32DFF773F2E16C0280122E095
:10277000420E511CF801A080B18036FE03C0692DC5
:1027800070E002C06FEF7FEFC5010E94E9144C01B9
:10279000F32DF0683F2E820133FC1BC0822D90E0A8
:1027A00088169906B0F4B60180E290E00E94FF140A
:1027B0002A94F4CFF50137FC859137FE81915F01B2
:1027C000B60190E00E94FF1421102A9421E0821AA1
:1027D00091088114910471F7E8C0843611F08936AC
:1027E00041F5F80137FE07C06081718182819381D4
:1027F0000C5F1F4F08C060817181072E000C880B91
:10280000990B0E5F1F4FF32DFF763F2E97FF09C0E8
:1028100090958095709561957F4F8F4F9F4FF06891
:102820003F2E2AE030E0A3010E943B15882E861837
:1028300045C0853731F4232D2F7EB22E2AE030E0BB
:1028400025C0932D997FB92E8F36C1F018F48835A5
:1028500079F0B5C0803719F0883721F0B0C0E92F82
:10286000E061BE2EB4FE0DC0FB2DF460BF2E09C08A
:1028700034FE0AC0292F2660B22E06C028E030E0C0
:1028800005C020E130E002C020E132E0F801B7FEEF
:1028900007C060817181828193810C5F1F4F06C0E8
:1028A0006081718180E090E00E5F1F4FA3010E9464
:1028B0003B15882E8618FB2DFF773F2E36FE0DC068
:1028C000232D2E7FA22E891458F434FE0BC032FC27
:1028D00009C0832D8E7EA82E05C0B82CA32C03C062
:1028E000B82C01C0B92CA4FE0FC0FE01E80DF11DEB
:1028F0008081803321F49A2D997EA92E09C0A2FEF1
:1029000006C0B394B39404C08A2D867809F0B394BA
:10291000A3FC11C0A0FE06C0B21488F4280C922CAF
:102920009B180EC0B21460F4B60180E290E00E94E1
:10293000FF14B394F7CFB21418F42B1802C0982CDC
:10294000212CA4FE10C0B60180E390E00E94FF1489
:10295000A2FE17C0A1FC03C088E790E002C088E592
:1029600090E0B6010CC08A2D867859F0A1FE02C015
:102970008BE201C080E2A7FC8DE2B60190E00E94EC
:10298000FF14891438F4B60180E390E00E94FF142C
:102990009A94F7CF8A94F301E80DF11D8081B60176
:1029A00090E00E94FF148110F5CF222009F442CE5E
:1029B000B60180E290E00E94FF142A94F6CFF6015F
:1029C0008681978102C08FEF9FEF2B96E2E10C94F6
:1029D000B515FC010590615070400110D8F7809545
:1029E00090958E0F9F1F0895FC01615070400190DB
:1029F0000110D8F7809590958E0F9F1F08950F9323
:102A00001F93CF93DF93FB01238121FD03C08FEF41
:102A10009FEF2CC022FF16C046815781248135814B
:102A20004217530744F4A081B1819D012F5F3F4FAE
:102A3000318320838C93268137812F5F3F4F3783EB
:102A4000268314C08B01EC01FB010084F185E02D8D
:102A50000995892BE1F6D80116968D919C911797CF
:102A6000019617969C938E931697CE01DF91CF9186
:102A70001F910F910895FA01AA27283051F12031B2
:102A800081F1E8946F936E7F6E5F7F4F8F4F9F4F02
:102A9000AF4FB1E03ED0B4E03CD0670F781F891F44
:102AA0009A1FA11D680F791F8A1F911DA11D6A0F12
:102AB000711D811D911DA11D20D009F468943F91C5
:102AC0002AE0269F11243019305D3193DEF6CF01C4
:102AD0000895462F4770405D4193B3E00FD0C9F78A
:102AE000F6CF462F4F70405D4A3318F0495D31FDF7
:102AF0004052419302D0A9F7EACFB4E0A69597954A
:102B0000879577956795BA95C9F70097610571051F
:102B100008959B01AC010A2E069457954795379569
:102B20002795BA95C9F7620F731F841F951FA01DC3
:102B300008952F923F924F925F926F927F928F9261
:102B40009F92AF92BF92CF92DF92EF92FF920F933C
:102B50001F93CF93DF93CDB7DEB7CA1BDB0B0FB646
:102B6000F894DEBF0FBECDBF09942A883988488803
:102B70005F846E847D848C849B84AA84B984C88499
:102B8000DF80EE80FD800C811B81AA81B981CE0F90
:102B9000D11D0FB6F894DEBF0FBECDBFED01089575
:042BA000F894FFCFD7
:102BA40042064D06C002B8025706670664066E0662
:102BB4007B0681063E002530352E3266005E0020FD
:102BC4004156522043686172676572202020627901
:102BD400204D2E2044616E656B202056312E3130FD
:102BE4002020286329323031362020206D61646131
:102BF4006E656B0A202020706F73742E637A005305
:102C0400656C656374206D6F64653A20004261747D
:102C14007465727920747970653A006D6178206307
:102C240068617267696E670A63757272656E742093
:102C34005B415D006D617820626174746572790A2C
:102C4400766F6C74616765205B565D00524556492A
:102C540045573A0A49636872673A202025342E3270
:102C6400662041566D61783A202025352E32662043
:102C740056506C7567696E2062617474657279610F
:102C84006E642070726573730A6D6964646C652088
:102C9400627574746F6E005354415254494E472008
:102CA40043432D4356204348415247450A00566D3D
:102CB40061783A2025352E326620562C20496D61E4
:102CC400783A2025342E326620560A00563B493B7A
:102CD400744872733A744D696E3A745365633B5029
:102CE400574D3B74656D700A004348415247494E45
:102CF400473A0A493A2025342E32662F25342E329B
:102D0400662041563A25352E32662F25352E3266F9
:102D140056453A20253564206D41682020253032FF
:102D2400643A253032643A253032642025336420F5
:102D3400430025352E32663B25342E32663B253042
:102D440032643A253032643A253032643B253033DC
:102D5400643B2533643B0A00434F4E5354204300E5
:102D6400434F4E53542056004348415247494E471F
:102D74000A46494E49534845440A453A2025356494
:102D8400206D41680A453A20253564206D57680A4C
:102D9400543A20253032643A253032643A253032B0
:102DA4006420202000434852472053554343455351
:102DB40053004241545420544F4F205741524D2107
:102DC4000042544E20505245535345440043484119
:102DD40052474520454E4445440A00566D61783AB1
:102DE4002025352E326620562C20496D61783A20F4
:102DF40025342E326620410A0023206F660A63655B
:102E04006C6C73006368617267696E670A74696DDC
:102E140065205B4872735D004E6943642F4E694DB3
:102E2400482043485247493A2025342E32662F25FC
:102E3400342E32662041563A25352E32662F2535FA
:102E44002E326656253032643A253032643A2530C3
:102E54003264202533642043004348415247494E9D
:102E6400470A46494E49534845440A453A202535C0
:102E740064206D41680A453A20253564206D576801
:102E84000A543A20253032643A253032643A2530E7
:102E94003264004F564552564F4C54414745002D1D
:102EA40044454C544120560054494D45204F5554F7
:102EB400006F75747075740A766F6C746167652041
:102EC4005B565D00566F75743A2025352E326620A8
:102ED4000A496F75743A2025352E3266200A503A15
:102EE4002025352E326620570A50574D3A2025307A
:102EF4003364006F75747075740A63757272656EED
:102F040074205B415D006469736368617267696E14
:102F1400670A63757272656E74205B415D006D694A
:102F24006E696D616C0A766F6C74616765205B41D4
:102F34005D005245564945573A0A496469733A2037
:102F4400202025342E32662041566D696E3A2020A9
:102F540025352E32662056506C7567696E20626185
:102F64007474657279616E642070726573730A6D2E
:102F74006964646C6520627574746F6E00535441A7
:102F84005254494E47204449534348415247450A05
:102F940000566D696E3A2025352E326620562C2057
:102FA400496469733A2025342E326620560A005645
:102FB4002C492C6D41682C6D57682C744872732C05
:102FC400744D696E2C745365632C50574D0A00443C
:102FD40049534348415247453A0A563A2025352E2B
:102FE40032662F25352E3266493A2025352E336632
:102FF4002F25352E3366453A202020253564206D53
:103004004168453A202020253564206D57682530D5
:1030140032643A253032643A253032642020202547
:103024003033640025352E32663B25342E32663B20
:103034002535643B2535643B253032643A253032EE
:10304400643A253032643B253033640A00524553D8
:10305400554C54533A0A563A2025352E32662D25BE
:10306400352E3266493A20202020202025342E3265
:10307400662041453A202020253564206D4168456D
:103084003A202020253564206D5768743A2020208A
:1030940020253032643A253032643A2530326400D7
:1030A40063757272656E740A6C696D6974205B4134
:1030B4005D00566F75743A2025352E3266200A4914
:1030C4006F75743A2025352E3266200A503A202531
:1030D400352E326620570A50574D3A202530336436
:1030E4000A004C692D496F6E2F534C41004E6943C1
:1030F400642F4E694D48004241434B20544F204DAC
:10310400454E550044495343484152474500504FAA
:1031140057455220535550504C590041424F555435
:0A312400005245535441525400007C
:00000001FF
